{
  "_format": "hh-sol-artifact-1",
  "contractName": "CompV2MintStarter",
  "sourceName": "contracts/CompV2MintStarter.sol",
  "abi": [
    {
      "anonymous": false,
      "inputs": [
        {
          "indexed": true,
          "internalType": "address",
          "name": "previousOwner",
          "type": "address"
        },
        {
          "indexed": true,
          "internalType": "address",
          "name": "newOwner",
          "type": "address"
        }
      ],
      "name": "OwnershipTransferred",
      "type": "event"
    },
    {
      "inputs": [],
      "name": "owner",
      "outputs": [
        {
          "internalType": "address",
          "name": "",
          "type": "address"
        }
      ],
      "stateMutability": "view",
      "type": "function"
    },
    {
      "inputs": [],
      "name": "renounceOwnership",
      "outputs": [],
      "stateMutability": "nonpayable",
      "type": "function"
    },
    {
      "inputs": [],
      "name": "start",
      "outputs": [],
      "stateMutability": "nonpayable",
      "type": "function"
    },
    {
      "inputs": [],
      "name": "started",
      "outputs": [
        {
          "internalType": "bool",
          "name": "",
          "type": "bool"
        }
      ],
      "stateMutability": "view",
      "type": "function"
    },
    {
      "inputs": [
        {
          "internalType": "address",
          "name": "newOwner",
          "type": "address"
        }
      ],
      "name": "transferOwnership",
      "outputs": [],
      "stateMutability": "nonpayable",
      "type": "function"
    }
  ],
  "bytecode": "0x608060405234801561001057600080fd5b5061001a3361001f565b61006f565b600080546001600160a01b038381166001600160a01b0319831681178455604051919092169283917f8be0079c531659141344cd1fd0a4f28419497f9722a3daafe3b4186f6b6457e09190a35050565b6102c98061007e6000396000f3fe608060405234801561001057600080fd5b50600436106100575760003560e01c80631f2698ab1461005c578063715018a6146100855780638da5cb5b1461008f578063be9a6555146100aa578063f2fde38b146100b2575b600080fd5b60005461007090600160a01b900460ff1681565b60405190151581526020015b60405180910390f35b61008d6100c5565b005b6000546040516001600160a01b03909116815260200161007c565b61008d610104565b61008d6100c036600461022e565b610143565b6000546001600160a01b031633146100f85760405162461bcd60e51b81526004016100ef9061025e565b60405180910390fd5b61010260006101de565b565b6000546001600160a01b0316331461012e5760405162461bcd60e51b81526004016100ef9061025e565b6000805460ff60a01b1916600160a01b179055565b6000546001600160a01b0316331461016d5760405162461bcd60e51b81526004016100ef9061025e565b6001600160a01b0381166101d25760405162461bcd60e51b815260206004820152602660248201527f4f776e61626c653a206e6577206f776e657220697320746865207a65726f206160448201526564647265737360d01b60648201526084016100ef565b6101db816101de565b50565b600080546001600160a01b038381166001600160a01b0319831681178455604051919092169283917f8be0079c531659141344cd1fd0a4f28419497f9722a3daafe3b4186f6b6457e09190a35050565b60006020828403121561024057600080fd5b81356001600160a01b038116811461025757600080fd5b9392505050565b6020808252818101527f4f776e61626c653a2063616c6c6572206973206e6f7420746865206f776e657260408201526060019056fea2646970667358221220490124915885eb6c0e1ae3026ef024a2f66374036ce702a88fe2d5d6ef0bd34164736f6c63430008090033",
  "linkReferences": {},
  "deployedLinkReferences": {}
}