{
    "_format": "hh-sol-artifact-1",
    "contractName": "CompV2Mint",
    "sourceName": "contracts/CompV2Mint.sol",
    "abi": [
        {
            "inputs": [
                {
                    "internalType": "contract IERC1155",
                    "name": "_nft",
                    "type": "address"
                }
            ],
            "stateMutability": "nonpayable",
            "type": "constructor"
        },
        {
            "anonymous": false,
            "inputs": [
                {
                    "indexed": true,
                    "internalType": "address",
                    "name": "previousOwner",
                    "type": "address"
                },
                {
                    "indexed": true,
                    "internalType": "address",
                    "name": "newOwner",
                    "type": "address"
                }
            ],
            "name": "OwnershipTransferred",
            "type": "event"
        },
        {
            "inputs": [
                {
                    "internalType": "uint256",
                    "name": "id",
                    "type": "uint256"
                }
            ],
            "name": "mint",
            "outputs": [],
            "stateMutability": "payable",
            "type": "function"
        },
        {
            "inputs": [],
            "name": "nft",
            "outputs": [
                {
                    "internalType": "contract IERC1155",
                    "name": "",
                    "type": "address"
                }
            ],
            "stateMutability": "view",
            "type": "function"
        },
        {
            "inputs": [
                {
                    "internalType": "address",
                    "name": "operator",
                    "type": "address"
                },
                {
                    "internalType": "address",
                    "name": "from",
                    "type": "address"
                },
                {
                    "internalType": "uint256[]",
                    "name": "ids",
                    "type": "uint256[]"
                },
                {
                    "internalType": "uint256[]",
                    "name": "values",
                    "type": "uint256[]"
                },
                {
                    "internalType": "bytes",
                    "name": "data",
                    "type": "bytes"
                }
            ],
            "name": "onERC1155BatchReceived",
            "outputs": [
                {
                    "internalType": "bytes4",
                    "name": "",
                    "type": "bytes4"
                }
            ],
            "stateMutability": "nonpayable",
            "type": "function"
        },
        {
            "inputs": [
                {
                    "internalType": "address",
                    "name": "operator",
                    "type": "address"
                },
                {
                    "internalType": "address",
                    "name": "from",
                    "type": "address"
                },
                {
                    "internalType": "uint256",
                    "name": "id",
                    "type": "uint256"
                },
                {
                    "internalType": "uint256",
                    "name": "value",
                    "type": "uint256"
                },
                {
                    "internalType": "bytes",
                    "name": "data",
                    "type": "bytes"
                }
            ],
            "name": "onERC1155Received",
            "outputs": [
                {
                    "internalType": "bytes4",
                    "name": "",
                    "type": "bytes4"
                }
            ],
            "stateMutability": "nonpayable",
            "type": "function"
        },
        {
            "inputs": [],
            "name": "owner",
            "outputs": [
                {
                    "internalType": "address",
                    "name": "",
                    "type": "address"
                }
            ],
            "stateMutability": "view",
            "type": "function"
        },
        {
            "inputs": [],
            "name": "renounceOwnership",
            "outputs": [],
            "stateMutability": "nonpayable",
            "type": "function"
        },
        {
            "inputs": [
                {
                    "internalType": "bytes4",
                    "name": "interfaceId",
                    "type": "bytes4"
                }
            ],
            "name": "supportsInterface",
            "outputs": [
                {
                    "internalType": "bool",
                    "name": "",
                    "type": "bool"
                }
            ],
            "stateMutability": "view",
            "type": "function"
        },
        {
            "inputs": [
                {
                    "internalType": "address",
                    "name": "newOwner",
                    "type": "address"
                }
            ],
            "name": "transferOwnership",
            "outputs": [],
            "stateMutability": "nonpayable",
            "type": "function"
        }
    ],
    "bytecode": "0x608060405234801561001057600080fd5b506040516107ff3803806107ff83398101604081905261002f916100ad565b6100383361005d565b600180546001600160a01b0319166001600160a01b03929092169190911790556100dd565b600080546001600160a01b038381166001600160a01b0319831681178455604051919092169283917f8be0079c531659141344cd1fd0a4f28419497f9722a3daafe3b4186f6b6457e09190a35050565b6000602082840312156100bf57600080fd5b81516001600160a01b03811681146100d657600080fd5b9392505050565b610713806100ec6000396000f3fe60806040526004361061007b5760003560e01c8063a0712d681161004e578063a0712d6814610122578063bc197c8114610135578063f23a6e6114610196578063f2fde38b146101dc57600080fd5b806301ffc9a71461008057806347ccca02146100b5578063715018a6146100ed5780638da5cb5b14610104575b600080fd5b34801561008c57600080fd5b506100a061009b36600461049b565b6101fc565b60405190151581526020015b60405180910390f35b3480156100c157600080fd5b506001546100d5906001600160a01b031681565b6040516001600160a01b0390911681526020016100ac565b3480156100f957600080fd5b50610102610233565b005b34801561011057600080fd5b506000546001600160a01b03166100d5565b6101026101303660046104cc565b61029e565b34801561014157600080fd5b5061017d61015036600461058f565b7fbc197c819b3e337a6f9652dd10becd7eef83032af3b9d958d3d42f669414662198975050505050505050565b6040516001600160e01b031990911681526020016100ac565b3480156101a257600080fd5b5061017d6101b136600461064a565b7ff23a6e612e1ff4830e658fe43f4e3cb4a5f8170bd5d9e69fb5d7a7fa9e4fdf979695505050505050565b3480156101e857600080fd5b506101026101f73660046106c2565b610380565b60006001600160e01b03198216636cdb3d1360e11b148061022d57506301ffc9a760e01b6001600160e01b03198316145b92915050565b6000546001600160a01b031633146102925760405162461bcd60e51b815260206004820181905260248201527f4f776e61626c653a2063616c6c6572206973206e6f7420746865206f776e657260448201526064015b60405180910390fd5b61029c600061044b565b565b346801158e460913d00000146102b357600080fd5b60018054604051637921219560e11b815230600482015233602482015260448101849052606481019290925260a06084830152600060a48301526001600160a01b03169063f242432a9060c401600060405180830381600087803b15801561031a57600080fd5b505af115801561032e573d6000803e3d6000fd5b505050506103446000546001600160a01b031690565b6001600160a01b03166108fc349081150290604051600060405180830381858888f1935050505015801561037c573d6000803e3d6000fd5b5050565b6000546001600160a01b031633146103da5760405162461bcd60e51b815260206004820181905260248201527f4f776e61626c653a2063616c6c6572206973206e6f7420746865206f776e65726044820152606401610289565b6001600160a01b03811661043f5760405162461bcd60e51b815260206004820152602660248201527f4f776e61626c653a206e6577206f776e657220697320746865207a65726f206160448201526564647265737360d01b6064820152608401610289565b6104488161044b565b50565b600080546001600160a01b038381166001600160a01b0319831681178455604051919092169283917f8be0079c531659141344cd1fd0a4f28419497f9722a3daafe3b4186f6b6457e09190a35050565b6000602082840312156104ad57600080fd5b81356001600160e01b0319811681146104c557600080fd5b9392505050565b6000602082840312156104de57600080fd5b5035919050565b80356001600160a01b03811681146104fc57600080fd5b919050565b60008083601f84011261051357600080fd5b50813567ffffffffffffffff81111561052b57600080fd5b6020830191508360208260051b850101111561054657600080fd5b9250929050565b60008083601f84011261055f57600080fd5b50813567ffffffffffffffff81111561057757600080fd5b60208301915083602082850101111561054657600080fd5b60008060008060008060008060a0898b0312156105ab57600080fd5b6105b4896104e5565b97506105c260208a016104e5565b9650604089013567ffffffffffffffff808211156105df57600080fd5b6105eb8c838d01610501565b909850965060608b013591508082111561060457600080fd5b6106108c838d01610501565b909650945060808b013591508082111561062957600080fd5b506106368b828c0161054d565b999c989b5096995094979396929594505050565b60008060008060008060a0878903121561066357600080fd5b61066c876104e5565b955061067a602088016104e5565b94506040870135935060608701359250608087013567ffffffffffffffff8111156106a457600080fd5b6106b089828a0161054d565b979a9699509497509295939492505050565b6000602082840312156106d457600080fd5b6104c5826104e556fea2646970667358221220a6bac31cc3dab8faea67472fdbc72564cfbc87dafe8bf2d3c8731e2f866f76ff64736f6c63430008090033",
    "linkReferences": {},
    "deployedLinkReferences": {}
}